:020000040800F2
:10000000D0060020650100081D160008AB1400088A
:1000100000000000000000000000000000000000E0
:100020000000000000000000000000006116000851
:1000300000000000000000001F1600086316000802
:1000400077010008770100087701000877010008B0
:1000500077010008770100087701000877010008A0
:100060007701000877010008770100087701000890
:1000700077010008770100086D1600087701000875
:100080007701000877010008770100087701000870
:100090007701000877010008770100087701000860
:1000A0007701000877010008770100087701000850
:1000B00077010008D91600087701000877010008C9
:1000C00000F002F800F03EF80CA030C80838241800
:1000D0002D18671EA246AB4654465D46AC4201D180
:1000E00000F030F87E460F3EB6460FCC0126334274
:1000F00000D0FB1A3343A246AB461847F81C000059
:10010000181D0000103A02D378C878C1FAD85207F7
:1001100001D330C830C101D504680C6070470000BD
:100120000023002400250026103A01D378C1FBD813
:10013000520700D330C100D50B6070471FB51FBDFB
:1001400010B510BD00F0C2F91146FFF7F7FF01F03E
:10015000DFFA00F0DAF903B4FFF7F2FF03BC00F0B6
:10016000E1F900000748804707480047FEE7FEE73F
:10017000FEE7FEE7FEE7FEE704480549054A064BB1
:10018000704700006B160008C1000008D000002076
:10019000D0060020D0020020D002002001E004C0E0
:1001A000091F0429FBD28B0701D50280801CC907D7
:1001B00000D00270704700290BD0C30702D0027034
:1001C000401C491E022904D3830702D50280801CEB
:1001D000891EE3E70022EEE70022DFE77047704761
:1001E000704700000346CA02400D10B510430A15BF
:1001F00004D00124E4072043002A05DB0A4CA21A9C
:1002000004D4D040FF2A00DD002010BD4A00002B9E
:1002100001D0012000E00020101801225205D04238
:10022000F2D8C817C04310BD1E0400001F22030CE3
:1002300002D10F22000402D0030E03D004E00020FC
:10024000014670470002083A030F01D10001121F56
:10025000830F01D18000921E002801DB4000521E56
:10026000120551184205C012411810467047C10FBF
:10027000C90700D04042012292071143D6E701216D
:100280008907D3E7F0B58B4C0F09254689B0BD43EC
:100290007BD01D092646AE43FAD00E465E4027406D
:1002A000F60F3E43254071D024012142FBD0FF24AC
:1002B000AD19A4042D1B039501252D05DB02DB0AD6
:1002C000C9022B43C90A29431E010901040F130F58
:1002D000050121431701880B820391432D098C46A8
:1002E000A90B1E438A039543B30B9A0396433F0918
:1002F000BA0B9403A74302962E467E430497B64654
:100300004E19D7190C460196544305977E43371B67
:100310007646BF1B3601B646BE0B361900967646AA
:10032000BC043719009C01D3641C00946400002FA6
:1003300001D001263443029E049F754366467E43E6
:100340000496760034196E0034190094029C019EC4
:100350001C196643751BAE46069465464519059CF7
:1003600005956C43594375460891691A0191049E9D
:1003700001465143A41B0491611A009C0791E106B8
:1003800005D061090122114302E072E06EE06109CB
:10039000089D00272C0A2D066918049D7C412A0A15
:1003A0002D066918019D6241AC0DAD026D185441D6
:1003B000079A910D920255196141029A6446584379
:1003C0005443069B059A5A43121A131B9A0E9B011B
:1003D0005B187A41010B0005C3185141220A20061F
:1003E00044195A419A4200D2491C012040028142DC
:1003F00003D315230226F64302E014230326F64313
:100400002020C51AA9401746AF40DA400A432046CB
:100410000399D8400914731819055118039A3843E1
:10042000D2075140AC4009D00122944006D30022AB
:10043000401C5141002C01D1400840001E4A93420B
:1004400012D3012203989206904207DB0520400751
:1004500009181A480143C012414004E00320400734
:100460000818C10FC907002009B0F0BD0020F1072E
:10047000FAE705180C464C4111486D42A04115D3CE
:1004800094181A465A410E48644290410ED30120F6
:100490004A004005824209D35A00824206D359409D
:1004A000C90F084AC90700201143DDE700200649AB
:1004B000DAE700000000FF07FE070000FFFFFF7FF4
:1004C0000000E0FF0000F07F0000F87F754600F0BC
:1004D00025F8AE46050069465346C008C00085466B
:1004E00018B020B5FFF748FE60BCB64600260027CE
:1004F000C0C5C0C5C0C5C0C5C0C5C0C5C0C5C0C5D4
:10050000403D490849008D46704710B50446C04635
:10051000C0462046FFF71FFE10BD00000048704790
:100520001000002001491820ABBEFEE726000200A3
:1005300070470000B0B5044600F0DEF80546601CC8
:1005400002D08A480078041900F0D6F8401BA04277
:10055000FAD3B0BDF0B58AB002900D68002D00D17D
:10056000B9E05E48029A824201D0052000E00420F2
:100570001723DB06D2180A23DA410092042A00D39B
:10058000009000273B463C4608912A460BE0134367
:100590003360079B641C0A681046E040BF1C1B1DAB
:1005A000002800D197E001200646A6403240F1D055
:1005B0000490079303200346BB400397DF43496839
:1005C0000D4605406B1E012B0697059113D801922D
:1005D000029A90683840089BDB68039FBB40034346
:1005E0009360C806C00FA0405368B3431646019AF3
:1005F0000343736006E0032D029E039F02D105466C
:10060000079B1EE0F0680699084008998B68BB407C
:100610000343F360022D079B13D11C2018400F21C8
:100620008140E3089B00F3181D6A8D43089E3169E1
:10063000814029431962079B7068029E032505903B
:100640000540BD4030680699084028433060059851
:100650008003800F0899049D9CD04F490868284367
:1006600008600868284009900C2018400F2181403C
:10067000032325469D43099B1A4EAB598B43009992
:1006800081401943A9510899154EB5684868C302BD
:100690000FD51543B560F56883020FD49543F56017
:1006A000756883030FD4954375603368C00310D514
:1006B0006DE79543B560F5688302EFD51543F560A6
:1006C00075688303EFD5154375603368C00300D5A3
:1006D0005DE793435CE70AB0F0BDC04600100048F8
:1006E0000004014008000140002A02D01822815075
:1006F0007047282281507047054800687047C046FF
:100700001A48007802490A68101808607047C04605
:10071000CC00002080B58B48016810220A4302609B
:10072000032000F005F800F023F8002080BDC0464B
:1007300070B504467D20C0000C4E317801F036FAC9
:1007400001468A48006801F031FA00F065FB012596
:10075000032C08D8002806D10025E84321462A4664
:1007600000F028F87460284670BDC04600000020E4
:1007700082B00948016801221143016001681140FB
:1007800001910199110742680A434260406808409C
:100790000090009802B0704718100240002805D45D
:1007A0001F21084001218140014801607047C04677
:1007B00000E100E0002805D40322034693430A4ADF
:1007C0009A1803E00C220240064BD2188007C00E94
:1007D0008901C9B28140FF238340106898430843D0
:1007E0001060704714ED00E000E400E0F0B581B067
:1007F000002847D00446534A1368012003408B4227
:1008000008D213680126B3430B43136012683240C9
:100810008A4238D1009121688A074B4B11D54A078B
:1008200007D507221202484B1B681343464A136040
:10083000454B1A68F0239A43A3681343424A136056
:10084000414BC90722D13F49086801263040009A30
:10085000904205D90868B04308600868C00712D103
:100860002078400706D50720000219688143E06818
:10087000084318601A681007810F3548022912D200
:10088000044650E00126304601B0F0BD61680329FE
:100890000DD01A1F02290FD0012912D1126892031C
:1008A0000646F0D511E0032926D12A4C3BE01A6B0D
:1008B00092030646E7D508E0126892010646E2D5A3
:1008C00003E0126892070646DDD518680326B04398
:1008D00008431860FFF710FF07461C4D1A4B1868B5
:1008E0000C210140606880008142ACD0FFF704FF1A
:1008F000C01BA842F2D9C6E70321CB031249896A7B
:100900000F240C401449095D94021A40240F134D22
:100910002C5D9A4202D033049A4200E00D4801F067
:1009200045F94443084B18680006000F0C49085C61
:10093000C4400E4804600320FFF7FAFE002630464C
:1009400001B0F0BD002002400410024088130000F6
:1009500000127A00006CDC02E41D0008D41D0008BF
:10096000A21D0008014800687047C046080000202A
:10097000F0B587B004460120002C00D145E2049078
:100980002078C007F94E05940CD071680C20014006
:10099000042900D090E03068800303D56068002807
:1009A00000D120E12078800721D570680007800FF2
:1009B0000ED070680C210140082900D09DE0032072
:1009C000C003716801400120C003814200D094E05F
:1009D00030688007059C03D5E068012800D002E15B
:1009E0003068F82188432169C90001433160059CC2
:1009F0002078000724D42078400737D42078C00618
:100A000000D4D3E005984069411D00D1C2E001281F
:100A100000D030E1706B042101437163706B0121E0
:100A200001437163FFF768FE0546706B800700D5D0
:100A3000B4E0FFF761FE411B03200229F5D9E4E190
:100A4000706AE169002900D181E0012108437062E8
:100A5000FFF752FE0546706A8007CCD4FFF74CFEC4
:100A6000401B0228F7D9032007B0F0BD01200390F6
:100A70000107F0690840029006D1F0690843F0616F
:100A8000F0690840069006980191E14F3868C0056A
:100A90004AD403980402386820433860FFF72CFEDC
:100AA0000546386820423FD1FFF726FE401B6428E8
:100AB000F7D9032007B0F0BD71680140082908D1BB
:100AC0000320C0037168014001200004814200D16D
:100AD00061E7616801204704002900D117E1052979
:100AE00000D12BE1012900D12CE1010432688A43B5
:100AF000326081043068884327E13068059CE168F2
:100B0000002936D0012108433060FFF7F5FD054686
:100B10003068800700D563E7FFF7EEFD401B022831
:100B2000F6D9032007B0F0BD05988068002800D1F1
:100B3000B6E0052800D1C9E0012800D1CAE0306A3A
:100B4000039988433062306A04218843C5E001215B
:100B500088437062FFF7D0FD0546706A800700D4B5
:100B600049E7FFF7C9FD401B0228F6D9032007B06B
:100B7000F0BD012188433060FFF7BEFD05463068B7
:100B8000800700D433E7FFF7B7FD411B032002299C
:100B9000F5D93AE1706B042188437063706BF821DA
:100BA000884305998969C9000143716305980078F4
:100BB00080060BD571680C2001400C2939D1706B6F
:100BC000800303D50598006A01280CD10598446A72
:100BD000002C00D1E1E070680C210140082905D10A
:100BE000012C00D0C4E0049807B0F0BD012002063B
:100BF00031680492914331604706FFF77DFD054659
:100C0000022C0BD1049C3068384200D1DEE0FFF7A3
:100C100073FD411B03200229F5D9F6E03068384204
:100C200000D1BAE0FFF768FD411B03200229F5D986
:100C3000EBE071680140082905D10320C003716809
:100C400001408142BBD0706B0599096A002900D12F
:100C5000A9E001210A04104370634C04FFF74CFD26
:100C60000546706B2042B1D1FFF746FD411B0320C2
:100C70000229F6D9C9E0706B042101437163706BDE
:100C8000012188437063FFF737FD0546706B8007CD
:100C90008CD5FFF731FD411B03200229F6D9B4E0C2
:100CA000306A039988433062306A04218843306295
:100CB000584CFFF721FD0546306A80071DD5FFF728
:100CC0001BFD411B0320A142F6D99EE0306A04219E
:100CD00001433162306A0399084330624D4CFFF79B
:100CE0000BFD0546306A800707D4FFF705FD401B62
:100CF000A042F7D9032007B0F0BD02980028059C58
:100D000000D07BE6F06901998843F06176E6010442
:100D100032688A4332608004316881433160FFF772
:100D2000EBFC0546059C3068384200D13AE6FFF7F7
:100D3000E3FC411B03206429F5D966E08104326895
:100D40000A4332600104306808433060FFF7D4FC86
:100D500005463068384200D024E6FFF7CDFC401B42
:100D60006428F6D9032007B0F0BDC0460010024049
:100D70000320C20370680240F16A059CA36A9A428C
:100D8000049D0DD10F221140236B994208D191048B
:100D90000840E16A8842284637D1002007B0F0BDFC
:100DA000284607B0F0BD01210A04904370634C044B
:100DB000FFF7A2FC0546706B204200D106E7FFF763
:100DC0009BFC411B03200229F5D91EE0F06A0F218C
:100DD0008843059A116B0143F1627B20C00371685F
:100DE0008143D06A0843916A0143716030682043AF
:100DF0003060FFF781FC044630683842CDD1FFF700
:100E00007BFC011B03200229F6D907B0F0BDC046C8
:100E10000070004088130000401E010E01D0012028
:100E200070470749074A5060074803680B40032191
:100E300089075918016000209060072111607047F0
:100E4000FFFFFF0010E000E020ED00E0704770477A
:100E500010B53C22825C012A01D1022010BD02465D
:100E60003C3202235370006843687024A3430C682B
:100E70001C4383684460D04CA04207DC0124A407D3
:100E8000A04209D0CB4CA04206D00AE0CE4CA042F2
:100E900002D0E94CA04204D18024A34349681943FD
:100EA0008160002010700121517010BD70B50546A1
:100EB000007F012843D1224EF068012812D000287B
:100EC0003DD10021284600F0D3FA29680A6A0A2396
:100ED0009A430A620122F2603060086A02220243E9
:100EE0000A6270BD00242846214600F0C1FA7060F5
:100EF0002D686C623168884201D9401A03E004D23F
:100F0000401A10494018B06000E0B068296A0A220F
:100F100091432962F460FFF7B2F90B4A0B4BFFF7DC
:100F2000B1F90B4B2246FFF7ADF9FFF75BF93061E2
:100F3000286A28627069C16802229143C16070BD4D
:100F400070000020FFFF00009CC420B07268A13F29
:100F50000000E03FF0B582B03C23C35C012B02D11E
:100F6000022002B0F0BD03463C330224E241032AD2
:100F70001AD8C0467A44127952009744011A3E5F4B
:100F80000268146A0120844314629669CC68019453
:100F900030C90095156ADE4F0839BA4274DC8707FC
:100FA000BA4277D0DD4F73E001200021197002B002
:100FB000F0BD0068026A1024A24302624A6812026D
:100FC000444C1440CA68120392B21219F32424024A
:100FD0008569A5431543026A85610C682401A02533
:100FE0002C40AA431219026203229202846994439C
:100FF000846189680902183063E0012212020068E6
:10100000046A944304624A68F024A243CC68240131
:10101000E4B2A218C469F325AC431443026AC46164
:10102000052464020D682D022540A2435219026274
:10103000C2690C24A243C261896823E00122120321
:101040000068046A944304624A681202214C144006
:10105000CA68120392B21219F3242402C569A54387
:101060001543026AC561052464030D682D032540FC
:10107000A2435219026203229202C4699443C461DA
:10108000896809021C301CE0A24FBA4202D0A24F6C
:10109000BA4202D103208643009806431046183016
:1010A000F027BE43019F3F01FFB2F61996610A2661
:1010B0003440B5432C19146294690C25AC439461F7
:1010C000896802680A43026000200021197002B09A
:1010D000F0BDC046000FFFFF70B5002829D00446C0
:1010E00005463C356878002804D100202870204649
:1010F00000F070F80220687021680E6801208307F4
:10110000994205D0844A914202D0844A914219D131
:1011100070229643A26832437D4EB14216DD274BC2
:10112000994208DC7C4B994218D07A4B994215D0F1
:101130003EE0012070BD224B99420FD0214B9942D5
:101140000CD035E03246724EB142E8DC994205D00F
:10115000724B994202D01D4B994229D103231B02A5
:101160009A432369134322463E328026B343A6693D
:101170001E430E60E368CB6263688B62144BCB182E
:101180000A26F341072B06D806469E40E1231E425D
:1011900001D063690B6348611072107050709070D9
:1011A000D070107150719071D0716870002070BD56
:1011B0001346D8E700040040FF2B0140FF430140E5
:1011C0000048014000440140004001400020004030
:1011D00000D4FEBFB0B586B000684F49884201D048
:1011E00006B0B0BD0120C102F64A53680B435360FC
:1011F00053680B4001930199410413680B4313603A
:1012000012680A400092022105910024049403947C
:1012100002910002019000980920C00601A9FFF781
:1012200099F90E25284621462246FFF7C3FA28469B
:10123000FFF7B4FA06B0B0BD002C0140B0B50346CC
:101240003E33002906D0082910D0042911D15C1D95
:101250005A1C10E01C78012254401D79554025434A
:101260002C0651D102221A701A7119E09C1D9A1C89
:1012700001E0DC1DDA1C1578012255402478544029
:101280002C43240640D10222082904D0042905D188
:101290005A705A7104E09A709A7101E0DA70DA714A
:1012A00002230A46DA41032A1BD89200174B9A58A8
:1012B0000068C3681343C3601F2211400122134614
:1012C0008B40016A99430162016A19430162104926
:1012D000884208DC910788420BD01049884208D028
:1012E0000EE00120B0BD0B49884202D00A49884275
:1012F00006D1816807230B40062B01D10020B0BD29
:1013000001681143016000221046B0BDB41D000801
:10131000FF2B014000400140002C01400004004030
:10132000B0B504468020C54320680169890717D5F8
:10133000C168890714D529467E31016101212177D1
:101340008069800703D02046FFF7B0FD05E0204606
:1013500000F08AF8204600F088F800202077206806
:101360000169490718D5C168490715D529467C3157
:1013700001610221217780698005800F03D020461A
:10138000FFF794FD05E0204600F06EF8204600F0DF
:101390006CF80020207720680169090717D5C1681B
:1013A000090714D529467831016104212177C069E4
:1013B000800703D02046FFF779FD05E0204600F0C6
:1013C00053F8204600F051F800202077206801698A
:1013D000C90618D5C168C90615D5294670310161FD
:1013E00008212177C0698005800F03D02046FFF7D0
:1013F0005DFD05E0204600F037F8204600F035F8A6
:101400000020207720680169C90709D0C168C90791
:1014100006D029467F310161204600F027F8206878
:101420000169090607D5C168090604D5056120468A
:10143000FFF70CFD20680169490609D5C168490616
:1014400006D5294640310161204600F02DF820687C
:101450000169890607D5C168890604D5603505612B
:101460002046FFF7F4FCB0BD70477047704700009E
:101470000222D141032909D87944097949008F44CE
:1014800001070B0F00683430006870470020704778
:10149000006838300068704700683C30006870476A
:1014A00000684030006870477047FEE710B5594843
:1014B0000168032211430160C1689143C160016862
:1014C000C02211430160C1689143C16001214802FB
:1014D0001B4A1368034313601A48426810231343DE
:1014E00043604A034368134343608B02046A1C430E
:1014F0000462036A134303628A034368134343602D
:10150000CA43036813400360436813404360CA073B
:101510000368134303600268002A08D50268002AA2
:1015200005D50268002A02D50268002AF3D40268B1
:101530000A430260816B016804220A43026010BD05
:10154000181002400824014070B50124A00430495D
:101550000A6802430A6063051B4A15681D4315604B
:10156000E30515681D431560A302556A1D435562C6
:10157000A303556A1D4355626207144D2A60FF227A
:101580001202134D2E689643F2182A608A680243AD
:101590008A60FFF7E7F94B21C90100F007FB0D490D
:1015A000C8600868202202430A60086808220243D3
:1015B0000A600868042202430A6008682043086041
:1015C00070BDC046141002400004004800E100E075
:1015D0001CE400E0004800400120C004F6490A680D
:1015E00002430A60552001030A4802680A43026068
:1015F0004168F94A114041608168074B1940816098
:10160000C1681940C1604169114041617047C046DD
:101610001410024000080048FF0FF0FFFEE770477B
:101620000E4A13685B0708D413685B0705D4136878
:101630005B0702D413685B07F3D5136C0370106863
:10164000400708D41068400705D41068400702D44A
:1016500010684007F3D5106C0870704700240140F3
:10166000704780B5FFF74CF880BD704780B50248E1
:10167000FFF756FE80BDC0468400002010B50178FB
:10168000002915D00022134B05E0C9B29981521CE4
:10169000815C00290CD01C682406F6D41C68240642
:1016A000F3D41C682406F0D41C682406F3D5ECE7B8
:1016B00010BDC04607490A68120608D40A68120617
:1016C00005D40A68120602D40A681206F3D5888186
:1016D0007047C0461C48004002480088C049087056
:1016E0007047C046244800400848016801220A4368
:1016F00002600168022291430160016810220A43DE
:101700000260016820229143016070471400004884
:101710009CB0FEF7FFFF0EAC201D3021FEF75CFDF4
:1017200000261796102012900125119502270E977A
:101730002046FFF71DF9002803D0EFF3108072B6A2
:10174000FEE70D960C960B9607240A940AA83146DC
:10175000FFF74CF8002803D0EFF3108072B6FEE7D5
:10176000049709A8067008A80670FFF735FF1296BF
:101770006804DC490A6802430A60096801400A916A
:101780000A9809200594C4066F022046394632465D
:10179000FEF7AAFF119610960F9503970E9727460E
:1017A0000EA92046FEF7D6FE844C85488549616126
:1017B0000599A161E66120626662A662E6620B9607
:1017C0000A9614342046FFF787FC002803D0EFF375
:1017D000108072B6FEE702970AA92046FFF738FB91
:1017E000002803D0EFF3108072B6FEE71196109632
:1017F0000F950E960EA920463246FFF7ABFB002848
:1018000003D0EFF3108072B6FEE700F0EBF8FFF7BD
:101810009BFEFFF74BFE20463146FFF70FFD0F966C
:1018200069480E9001960B9668480A9054200790DC
:10183000674806900F20800105907D200701684EC3
:1018400046E005982830FEF775FE3224204600F069
:1018500053F9204600F05CF93846FEF76BFE30780D
:10186000FFF728FF0025284600F046F9284600F03B
:101870004FF93846FEF75EFE3078FFF71BFF00F0A9
:1018800053F9352000F038F9204600F041F9384688
:10189000FEF750FE3078FFF70DFF284600F02CF9D8
:1018A000284600F035F9FFF71FFF3846FEF742FEE5
:1018B0003078FFF7FFFE00F061F93846FEF73AFE98
:1018C0003078FFF7F7FE00F043F90EA8FFF7D6FED9
:1018D0000122029C2046039D2946FEF705FF37485A
:1018E000406901994162416A092908D8416A092978
:1018F00005D8416A092902D8416A0A29F3D300228E
:1019000020462946FEF7F0FE2C4B5869C168049A20
:101910001143C1601969C81E022808D82D4A1068F1
:101920004021014311602C49403110681EE0881F9E
:101930000628284A06D840351168294311601068E6
:10194000264913E008460D38072807D8C035116826
:101950002943116021498031106807E0106815396A
:10196000092902D80599084301E01B490840106085
:10197000C820FEF7DFFD0EA8FFF780FE3078FFF7E6
:1019800099FE09AC08AD20462946FFF749FE2046DE
:101990002946FFF745FE207840085D2802D30AA8B3
:1019A000FFF76CFE08A8007840085D2800D248E7E1
:1019B00006A8FFF763FE44E7141002407000002001
:1019C000FFFF0000002C0140746573744C454654C1
:1019D00052494748140800483FFCFFFF7FFEFFFFC5
:1019E0000C00002080B500F001F880BDF0B50120AA
:1019F00042043C490B6813430B6082040B68134399
:101A00000B60524A1346143B1C68052525431D6094
:101A100014680443146014680225AC431460564CE7
:101A200026461E361F6837431F60166810231E4364
:101A3000166016682027BE4316602B4A16681E43A0
:101A4000166056690427374357618A682A438A60BB
:101A5000264A07251561546115680324A5431560BE
:101A600025021668AE431660156860262E43166080
:101A700015689D4315606403156825431560156856
:101A80001B4C25401560156808262E431660C502BC
:101A900016682E43166095680543956095681D434A
:101AA00095600023D3611362C3040D681D430D606C
:101AB000430310490D681D430D600B6823400B6004
:101AC000C3030C681C430C6083030C689C430C60CC
:101AD000FF231B060C6A9C430C62183A11680143F1
:101AE0001160F0BD141002400004004818040040CA
:101AF000FFEFFFFF0008004810B5642806D82A4C05
:101B000021684843642100F051F8A06010BDC04630
:101B100010B5642806D8244C21684843642100F09D
:101B200045F8E06010BDC0460848016802220A433B
:101B300002600168012291430160016820220A438A
:101B40000260016810229143016070471400004850
:101B5000B0B5154C20680025A560216837204843A2
:101B6000642100F023F8E0600348FEF7E3FC2068FE
:101B7000A5602068E560B0BDE2040000B0B50A4C85
:101B8000216837204843642100F010F8A0602068E5
:101B90000025E560E120C000FEF7CCFC2068A560D0
:101BA0002068E560B0BDC0462C04004043088B426D
:101BB0001AD3002203098B4279D3030A8B425ED3E6
:101BC000030B8B4242D3030C8B4227D30902FF2223
:101BD00012BA030C8B4202D31212090203D0030B78
:101BE0008B4233D31AE0D3E0411A8041401C704746
:101BF00003460B4371D443088B42F5D300220309FB
:101C00008B4254D3030A8B4239D3030B8B421DD32F
:101C1000030C8B4202D394466EE0090AC30B8B423D
:101C200001D3CB03C01A5241830B8B4201D38B03E8
:101C3000C01A5241430B8B4201D34B03C01A52418D
:101C4000030B8B4201D30B03C01A5241C30A8B42D0
:101C500001D3CB02C01A5241830A8B4201D38B02BB
:101C6000C01A5241430A8B4201D34B02C01A52415F
:101C7000030A8B4201D30B02C01A5241CDD2C309D1
:101C80008B4201D3CB01C01A524183098B4201D34D
:101C90008B01C01A524143098B4201D34B01C01A38
:101CA000524103098B4201D30B01C01A5241C308B0
:101CB0008B4201D3CB00C01A524183088B4201D31F
:101CC0008B00C01A524143088B4201D34B00C01A0B
:101CD0005241411A524110007047CA0F00D0494288
:101CE000031000D34042534000229C4603098B421C
:101CF0002DD3030A8B4212D38901FC2212BA030AA4
:101D00008B420CD3890192118B4208D38901921125
:101D10008B4204D3890137D0921100E08909C309AD
:101D20008B4201D3CB01C01A524183098B4201D3AC
:101D30008B01C01A524143098B4201D34B01C01A97
:101D4000524103098B4201D30B01C01A5241C3080F
:101D50008B4201D3CB00C01A524183088B4201D37E
:101D60008B00C01A5241D9D243088B4201D34B0099
:101D7000C01A5241411A00D20146524110466346F0
:101D80005B1000D34042704763465B1000D3404273
:101D900001B50021004201D0C9430846C046C046F3
:101DA00002BD00000000000000000102030406075D
:101DB0000809000002000000040000000800000004
:101DC00010000000FDFFFFFFFBFFFFFFF7FFFFFF1D
:101DD000EFFFFFFF02030405060708090A0B0C0DBD
:101DE0000E0F10100102030405060708090A0B0C68
:101DF0000D0E0F10181E000800000020100000003B
:101E000004010008281E000810000020C006000081
:101E10002001000800000000010000000400000094
:081E200000127A006F000000BF
:04000005080000C12E
:00000001FF
