:020000040800F2
:100000007806002065010008310A0008A5090008EB
:1000100000000000000000000000000000000000E0
:10002000000000000000000000000000350A000889
:100030000000000000000000330A0008370A000832
:1000400077010008770100087701000877010008B0
:1000500077010008770100087701000877010008A0
:100060007701000877010008770100087701000890
:100070007701000877010008770100087701000880
:100080007701000877010008770100087701000870
:100090007701000877010008770100087701000860
:1000A0007701000877010008770100087701000850
:1000B000770100089D0A0008770100087701000811
:1000C00000F002F800F03EF80CA030C80838241800
:1000D0002D18671EA246AB4654465D46AC4201D180
:1000E00000F030F87E460F3EB6460FCC0126334274
:1000F00000D0FB1A3343A246AB461847B80E0000A7
:10010000D80E0000103A02D378C878C1FAD8520746
:1001100001D330C830C101D504680C6070470000BD
:100120000023002400250026103A01D378C1FBD813
:10013000520700D330C100D50B6070471FB51FBDFB
:1001400010B510BD00F04DF81146FFF7F7FF00F0B5
:10015000BFFC00F065F803B4FFF7F2FF03BC00F04A
:100160006BF800000748804707480047FEE7FEE7B6
:10017000FEE7FEE7FEE7FEE704480549054A064BB1
:10018000704700003F0A0008C10000087800002006
:1001900078060020780200207802002001E004C0E8
:1001A000091F0429FBD28B0701D50280801CC907D7
:1001B00000D00270704700290BD0C30702D0027034
:1001C000401C491E022904D3830702D50280801CEB
:1001D000891EE3E70022EEE70022DFE77047704761
:1001E0007047754600F024F8AE4605006946534650
:1001F000C008C000854618B020B5FFF7BDFF60BC41
:10020000B64600260027C0C5C0C5C0C5C0C5C0C50C
:10021000C0C5C0C5C0C5403D490849008D467047AE
:1002200010B50446C046C0462046FFF794FF10BDF7
:10023000004870471000002001491820ABBEFEE7BF
:100240002600020070470000B0B5044600F00CF82C
:100250000546601C02D021480078041900F004F81B
:10026000401BA042FAD3B0BD054800687047C046A5
:100270001A48007802490A68101808607047C0469A
:100280007000002080B58548016810220A43026092
:10029000032000F005F800F023F8002080BDC046E0
:1002A00070B504467D20C0000C4E317800F06EFD24
:1002B00001468448006800F069FD00F059FB012503
:1002C000032C08D8002806D10025E84321462A46F9
:1002D00000F01CF87460284670BDC0460000002085
:1002E00082B0094801680122114301600168114090
:1002F00001910199110742680A4342604068084031
:100300000090009802B0704718100240002805D4F1
:100310000322034693430A4A9A1803E00C22024040
:10032000064BD2188007C00E8901C9B28140FF2355
:1003300083401068984308431060704714ED00E054
:1003400000E400E0F0B581B0002847D00446534AED
:100350001368012003408B4208D213680126B3437F
:100360000B431360126832408A4238D100912168F1
:100370008A074B4B11D54A0707D507221202484B73
:100380001B681343464A1360454B1A68F0239A438F
:10039000A3681343424A1360414BC90722D13F4926
:1003A000086801263040009A904205D90868B04399
:1003B00008600868C00712D12078400706D50720DA
:1003C000000219688143E068084318601A68100742
:1003D000810F3548022912D2044650E001263046EA
:1003E00001B0F0BD616803290DD01A1F02290FD09A
:1003F000012912D1126892030646F0D511E00329B3
:1004000026D12A4C3BE01A6B92030646E7D508E05A
:10041000126892010646E2D503E01268920706468A
:10042000DDD518680326B04308431860FFF71CFFAA
:1004300007461C4D1A4B18680C210140606880006B
:100440008142ACD0FFF710FFC01BA842F2D9C6E72B
:100450000321CB031249896A0F240C401449095D1A
:1004600094021A40240F134D2C5D9A4202D033049B
:100470009A4200E00D4800F089FC4443084B18689C
:100480000006000F0C49085CC4400E4804600320BD
:10049000FFF706FF0026304601B0F0BD0020024005
:1004A000041002408813000000127A00006CDC0285
:1004B000A20F0008920F0008820F00080148006890
:1004C0007047C04608000020F0B587B00446012000
:1004D000002C00D145E204902078C007F94E059425
:1004E0000CD071680C200140042900D090E03068E5
:1004F000800303D56068002800D120E120788007C0
:1005000021D570680007800F0ED070680C21014063
:10051000082900D09DE00320C0037168014001203C
:10052000C003814200D094E030688007059C03D569
:10053000E068012800D002E13068F8218843216991
:10054000C90001433160059C2078000724D420783D
:10055000400737D42078C00600D4D3E0059840691E
:10056000411D00D1C2E0012800D030E1706B0421B0
:1005700001437163706B012101437163FFF774FEE6
:100580000546706B800700D5B4E0FFF76DFE411B98
:1005900003200229F5D9E4E1706AE169002900D15C
:1005A00081E0012108437062FFF75EFE0546706A34
:1005B0008007CCD4FFF758FE401B0228F7D9032050
:1005C00007B0F0BD012003900107F06908400290D8
:1005D00006D1F0690843F061F0690840069006987A
:1005E0000191E14F3868C0054AD403980402386885
:1005F00020433860FFF738FE0546386820423FD177
:10060000FFF732FE401B6428F7D9032007B0F0BD86
:1006100071680140082908D10320C00371680140B6
:1006200001200004814200D161E761680120470494
:10063000002900D117E1052900D12BE1012900D1C2
:100640002CE1010432688A433260810430688843B7
:1006500027E13068059CE168002936D00121084374
:100660003060FFF701FE05463068800700D563E77C
:10067000FFF7FAFD401B0228F6D9032007B0F0BDB2
:1006800005988068002800D1B6E0052800D1C9E0AF
:10069000012800D1CAE0306A039988433062306A89
:1006A00004218843C5E0012188437062FFF7DCFD27
:1006B0000546706A800700D449E7FFF7D5FD401B67
:1006C0000228F6D9032007B0F0BD0121884330602D
:1006D000FFF7CAFD05463068800700D433E7FFF70F
:1006E000C3FD411B03200229F5D93AE1706B0421B7
:1006F00088437063706BF821884305998969C90044
:10070000014371630598007880060BD571680C2051
:1007100001400C2939D1706B800303D50598006A1C
:1007200001280CD10598446A002C00D1E1E07068E2
:100730000C210140082905D1012C00D0C4E0049807
:1007400007B0F0BD01200206316804929143316088
:100750004706FFF789FD0546022C0BD1049C306843
:10076000384200D1DEE0FFF77FFD411B0320022964
:10077000F5D9F6E03068384200D1BAE0FFF774FDF1
:10078000411B03200229F5D9EBE0716801400829DB
:1007900005D10320C003716801408142BBD0706B5A
:1007A0000599096A002900D1A9E001210A04104332
:1007B00070634C04FFF758FD0546706B2042B1D1C1
:1007C000FFF752FD411B03200229F6D9C9E0706BE7
:1007D000042101437163706B012188437063FFF74B
:1007E00043FD0546706B80078CD5FFF73DFD411B2F
:1007F00003200229F6D9B4E0306A039988433062B5
:10080000306A042188433062584CFFF72DFD0546BD
:10081000306A80071DD5FFF727FD411B0320A14249
:10082000F6D99EE0306A042101433162306A0399AF
:10083000084330624D4CFFF717FD0546306A8007CC
:1008400007D4FFF711FD401BA042F7D9032007B0E2
:10085000F0BD02980028059C00D07BE6F069019964
:100860008843F06176E6010432688A43326080048E
:10087000316881433160FFF7F7FC0546059C30681D
:10088000384200D13AE6FFF7EFFC411B0320642910
:10089000F5D966E0810432680A43326001043068A9
:1008A00008433060FFF7E0FC05463068384200D06E
:1008B00024E6FFF7D9FC401B6428F6D9032007B0D3
:1008C000F0BDC046001002400320C2037068024021
:1008D000F16A059CA36A9A42049D0DD10F22114032
:1008E000236B994208D191040840E16A8842284666
:1008F00037D1002007B0F0BD284607B0F0BD012178
:100900000A04904370634C04FFF7AEFC0546706B1D
:10091000204200D106E7FFF7A7FC411B0320022974
:10092000F5D91EE0F06A0F218843059A116B014347
:10093000F1627B20C00371688143D06A0843916AE9
:1009400001437160306820433060FFF78DFC04463E
:1009500030683842CDD1FFF787FC011B0320022904
:10096000F6D907B0F0BDC046007000408813000003
:10097000401E010E01D0012070470749074A506010
:10098000074803680B4003218907591801600020BC
:100990009060072111607047FFFFFF0010E000E04A
:1009A00020ED00E0FEE7000070B50124A004C54979
:1009B0000A6802430A606305C34A15681D4315604F
:1009C000E30515681D431560A302556A1D43556272
:1009D000A303556A1D4355626207124D2A60FF2228
:1009E0001202114D2E689643F2182A608A6802435B
:1009F0008A60FFF763FD4B21C90100F0C7F90B497D
:100A0000C8600868202202430A600868082202437E
:100A10000A600868042202430A60086820430860EC
:100A200070BDC04600E100E01CE400E0004800406A
:100A3000FEE77047704780B5FFF71AFC80BD70472E
:100A400010B50178002915D00022134B05E0C9B27A
:100A50009981521C815C00290CD01C682406F6D4B4
:100A60001C682406F3D41C682406F0D41C682406F1
:100A7000F3D5ECE710BDC04607490A68120608D452
:100A80000A68120605D40A68120602D40A68120619
:100A9000F3D588817047C0461C4800400248008852
:100AA000474908707047C046244800409F48016885
:100AB00001220A4302600168022291430160016839
:100AC00010220A43026001682022914301607047AE
:100AD00092B0FFF7D7FB04AD281D3021FFF77CFB58
:100AE00000240D941020089001200790022004900B
:100AF0002846FFF7E9FC002803D0EFF3108072B618
:100B0000FEE7039402940194072000906846214672
:100B1000FFF718FC002803D0EFF3108072B6FEE751
:100B200000F050F8FFF740FF0594244804907D2022
:100B30000401234F3225284600F0CEF8284600F065
:100B4000D7F82046FFF780FB3878FFF795FF00269F
:100B5000304600F0C1F8304600F0CAF82046FFF7F2
:100B600073FB3878FFF788FF00F0CEF8352000F0EF
:100B7000B3F8284600F0BCF82046FFF765FB38784C
:100B8000FFF77AFF304600F0A7F8304600F0B0F8E3
:100B9000FFF78CFF2046FFF757FB3878FFF76CFF15
:100BA00000F0DCF82046FFF74FFB3878FFF764FFD2
:100BB00000F0BEF804A8FFF743FFBBE77465737449
:100BC0000C00002080B500F001F880BDF0B50120D8
:100BD00042043C490B6813430B6082040B681343C7
:100BE0000B60524A1346143B1C68052525431D60C3
:100BF00014680443146014680225AC431460564C16
:100C000026461E361F6837431F60166810231E4392
:100C1000166016682027BE4316602B4A16681E43CE
:100C2000166056690427374357618A682A438A60E9
:100C3000264A07251561546115680324A5431560EC
:100C400025021668AE431660156860262E431660AE
:100C500015689D4315606403156825431560156884
:100C60001B4C25401560156808262E431660C502EA
:100C700016682E43166095680543956095681D4378
:100C800095600023D3611362C3040D681D430D609A
:100C9000430310490D681D430D600B6823400B6032
:100CA000C3030C681C430C6083030C689C430C60FA
:100CB000FF231B060C6A9C430C62183A116801431F
:100CC0001160F0BD141002400004004818040040F8
:100CD000FFEFFFFF0008004810B5642806D82A4C33
:100CE00021684843642100F051F8A06010BDC0465F
:100CF00010B5642806D8244C21684843642100F0CC
:100D000045F8E06010BDC0460848016802220A4369
:100D100002600168012291430160016820220A43B8
:100D2000026001681022914301607047140000487E
:100D3000B0B5154C20680025A560216837204843D0
:100D4000642100F023F8E0600348FFF77DFA206893
:100D5000A5602068E560B0BDE2040000B0B50A4CB3
:100D6000216837204843642100F010F8A060206813
:100D70000025E560E120C000FFF766FA2068A56065
:100D80002068E560B0BDC0462C04004043088B429B
:100D90001AD3002203098B4279D3030A8B425ED314
:100DA000030B8B4242D3030C8B4227D30902FF2251
:100DB00012BA030C8B4202D31212090203D0030BA6
:100DC0008B4233D31AE0D3E0411A8041401C704774
:100DD00003460B4371D443088B42F5D30022030929
:100DE0008B4254D3030A8B4239D3030B8B421DD35E
:100DF000030C8B4202D394466EE0090AC30B8B426C
:100E000001D3CB03C01A5241830B8B4201D38B0316
:100E1000C01A5241430B8B4201D34B03C01A5241BB
:100E2000030B8B4201D30B03C01A5241C30A8B42FE
:100E300001D3CB02C01A5241830A8B4201D38B02E9
:100E4000C01A5241430A8B4201D34B02C01A52418D
:100E5000030A8B4201D30B02C01A5241CDD2C309FF
:100E60008B4201D3CB01C01A524183098B4201D37B
:100E70008B01C01A524143098B4201D34B01C01A66
:100E8000524103098B4201D30B01C01A5241C308DE
:100E90008B4201D3CB00C01A524183088B4201D34D
:100EA0008B00C01A524143088B4201D34B00C01A39
:100EB0005241411A524110007047CA0F00D04942B6
:100EC000031000D34042534000229C4603098B424A
:100ED0002DD3030A8B4212D38901FC2212BA030AD2
:100EE0008B420CD3890192118B4208D38901921154
:100EF0008B4204D3890137D0921100E08909C309DC
:100F00008B4201D3CB01C01A524183098B4201D3DA
:100F10008B01C01A524143098B4201D34B01C01AC5
:100F2000524103098B4201D30B01C01A5241C3083D
:100F30008B4201D3CB00C01A524183088B4201D3AC
:100F40008B00C01A5241D9D243088B4201D34B00C7
:100F5000C01A5241411A00D201465241104663461E
:100F60005B1000D34042704763465B1000D34042A1
:100F700001B50021004201D0C9430846C046C04621
:100F800002BD00000000000000000102030406078B
:100F9000080902030405060708090A0B0C0D0E0FC9
:100FA00010100102030405060708090A0B0C0D0EB8
:100FB0000F100000D80F00080000002010000000F3
:100FC00004010008E80F0008100000206806000077
:100FD00020010008000000000100000004000000E3
:080FE00000127A006F0000000E
:04000005080000C12E
:00000001FF
